{
  "_format": "hh-sol-artifact-1",
  "contractName": "ReaperStrategyLendingOptimizer",
  "sourceName": "contracts/ReaperStrategyLendingOptimizer.sol",
  "abi": [
    {
      "anonymous": false,
      "inputs": [
        {
          "indexed": false,
          "internalType": "address",
          "name": "previousAdmin",
          "type": "address"
        },
        {
          "indexed": false,
          "internalType": "address",
          "name": "newAdmin",
          "type": "address"
        }
      ],
      "name": "AdminChanged",
      "type": "event"
    },
    {
      "anonymous": false,
      "inputs": [
        {
          "indexed": true,
          "internalType": "address",
          "name": "beacon",
          "type": "address"
        }
      ],
      "name": "BeaconUpgraded",
      "type": "event"
    },
    {
      "anonymous": false,
      "inputs": [
        {
          "indexed": false,
          "internalType": "uint256",
          "name": "newCallFee",
          "type": "uint256"
        },
        {
          "indexed": false,
          "internalType": "uint256",
          "name": "newTreasuryFee",
          "type": "uint256"
        },
        {
          "indexed": false,
          "internalType": "uint256",
          "name": "newStrategistFee",
          "type": "uint256"
        }
      ],
      "name": "FeesUpdated",
      "type": "event"
    },
    {
      "anonymous": false,
      "inputs": [
        {
          "indexed": false,
          "internalType": "address",
          "name": "account",
          "type": "address"
        }
      ],
      "name": "Paused",
      "type": "event"
    },
    {
      "anonymous": false,
      "inputs": [
        {
          "indexed": true,
          "internalType": "bytes32",
          "name": "role",
          "type": "bytes32"
        },
        {
          "indexed": true,
          "internalType": "bytes32",
          "name": "previousAdminRole",
          "type": "bytes32"
        },
        {
          "indexed": true,
          "internalType": "bytes32",
          "name": "newAdminRole",
          "type": "bytes32"
        }
      ],
      "name": "RoleAdminChanged",
      "type": "event"
    },
    {
      "anonymous": false,
      "inputs": [
        {
          "indexed": true,
          "internalType": "bytes32",
          "name": "role",
          "type": "bytes32"
        },
        {
          "indexed": true,
          "internalType": "address",
          "name": "account",
          "type": "address"
        },
        {
          "indexed": true,
          "internalType": "address",
          "name": "sender",
          "type": "address"
        }
      ],
      "name": "RoleGranted",
      "type": "event"
    },
    {
      "anonymous": false,
      "inputs": [
        {
          "indexed": true,
          "internalType": "bytes32",
          "name": "role",
          "type": "bytes32"
        },
        {
          "indexed": true,
          "internalType": "address",
          "name": "account",
          "type": "address"
        },
        {
          "indexed": true,
          "internalType": "address",
          "name": "sender",
          "type": "address"
        }
      ],
      "name": "RoleRevoked",
      "type": "event"
    },
    {
      "anonymous": false,
      "inputs": [
        {
          "indexed": true,
          "internalType": "address",
          "name": "harvester",
          "type": "address"
        }
      ],
      "name": "StratHarvest",
      "type": "event"
    },
    {
      "anonymous": false,
      "inputs": [
        {
          "indexed": false,
          "internalType": "address",
          "name": "newStrategistRemitter",
          "type": "address"
        }
      ],
      "name": "StrategistRemitterUpdated",
      "type": "event"
    },
    {
      "anonymous": false,
      "inputs": [
        {
          "indexed": false,
          "internalType": "uint256",
          "name": "newFee",
          "type": "uint256"
        }
      ],
      "name": "TotalFeeUpdated",
      "type": "event"
    },
    {
      "anonymous": false,
      "inputs": [
        {
          "indexed": false,
          "internalType": "address",
          "name": "account",
          "type": "address"
        }
      ],
      "name": "Unpaused",
      "type": "event"
    },
    {
      "anonymous": false,
      "inputs": [
        {
          "indexed": true,
          "internalType": "address",
          "name": "implementation",
          "type": "address"
        }
      ],
      "name": "Upgraded",
      "type": "event"
    },
    {
      "inputs": [],
      "name": "DEFAULT_ADMIN_ROLE",
      "outputs": [
        {
          "internalType": "bytes32",
          "name": "",
          "type": "bytes32"
        }
      ],
      "stateMutability": "view",
      "type": "function"
    },
    {
      "inputs": [],
      "name": "KEEPER",
      "outputs": [
        {
          "internalType": "bytes32",
          "name": "",
          "type": "bytes32"
        }
      ],
      "stateMutability": "view",
      "type": "function"
    },
    {
      "inputs": [],
      "name": "MAX_FEE",
      "outputs": [
        {
          "internalType": "uint256",
          "name": "",
          "type": "uint256"
        }
      ],
      "stateMutability": "view",
      "type": "function"
    },
    {
      "inputs": [],
      "name": "MAX_SECURITY_FEE",
      "outputs": [
        {
          "internalType": "uint256",
          "name": "",
          "type": "uint256"
        }
      ],
      "stateMutability": "view",
      "type": "function"
    },
    {
      "inputs": [],
      "name": "MAX_SLIPPAGE_TOLERANCE",
      "outputs": [
        {
          "internalType": "uint256",
          "name": "",
          "type": "uint256"
        }
      ],
      "stateMutability": "view",
      "type": "function"
    },
    {
      "inputs": [],
      "name": "ONE_YEAR",
      "outputs": [
        {
          "internalType": "uint256",
          "name": "",
          "type": "uint256"
        }
      ],
      "stateMutability": "view",
      "type": "function"
    },
    {
      "inputs": [],
      "name": "PERCENT_DIVISOR",
      "outputs": [
        {
          "internalType": "uint256",
          "name": "",
          "type": "uint256"
        }
      ],
      "stateMutability": "view",
      "type": "function"
    },
    {
      "inputs": [],
      "name": "SPOOKY_ROUTER",
      "outputs": [
        {
          "internalType": "address",
          "name": "",
          "type": "address"
        }
      ],
      "stateMutability": "view",
      "type": "function"
    },
    {
      "inputs": [],
      "name": "STRATEGIST",
      "outputs": [
        {
          "internalType": "bytes32",
          "name": "",
          "type": "bytes32"
        }
      ],
      "stateMutability": "view",
      "type": "function"
    },
    {
      "inputs": [],
      "name": "STRATEGIST_MAX_FEE",
      "outputs": [
        {
          "internalType": "uint256",
          "name": "",
          "type": "uint256"
        }
      ],
      "stateMutability": "view",
      "type": "function"
    },
    {
      "inputs": [],
      "name": "STRATEGIST_MULTISIG",
      "outputs": [
        {
          "internalType": "bytes32",
          "name": "",
          "type": "bytes32"
        }
      ],
      "stateMutability": "view",
      "type": "function"
    },
    {
      "inputs": [],
      "name": "TAROT_REQUIEM_ROUTER",
      "outputs": [
        {
          "internalType": "address",
          "name": "",
          "type": "address"
        }
      ],
      "stateMutability": "view",
      "type": "function"
    },
    {
      "inputs": [],
      "name": "TAROT_ROUTER",
      "outputs": [
        {
          "internalType": "address",
          "name": "",
          "type": "address"
        }
      ],
      "stateMutability": "view",
      "type": "function"
    },
    {
      "inputs": [],
      "name": "UPGRADE_TIMELOCK",
      "outputs": [
        {
          "internalType": "uint256",
          "name": "",
          "type": "uint256"
        }
      ],
      "stateMutability": "view",
      "type": "function"
    },
    {
      "inputs": [],
      "name": "WFTM",
      "outputs": [
        {
          "internalType": "address",
          "name": "",
          "type": "address"
        }
      ],
      "stateMutability": "view",
      "type": "function"
    },
    {
      "inputs": [
        {
          "internalType": "uint256",
          "name": "_poolIndex",
          "type": "uint256"
        },
        {
          "internalType": "enum ReaperStrategyLendingOptimizer.RouterType",
          "name": "_routerType",
          "type": "uint8"
        }
      ],
      "name": "addUsedPool",
      "outputs": [],
      "stateMutability": "nonpayable",
      "type": "function"
    },
    {
      "inputs": [
        {
          "components": [
            {
              "internalType": "enum ReaperStrategyLendingOptimizer.RouterType",
              "name": "routerType",
              "type": "uint8"
            },
            {
              "internalType": "uint256",
              "name": "index",
              "type": "uint256"
            }
          ],
          "internalType": "struct ReaperStrategyLendingOptimizer.RouterPool[]",
          "name": "_poolsToAdd",
          "type": "tuple[]"
        }
      ],
      "name": "addUsedPools",
      "outputs": [],
      "stateMutability": "nonpayable",
      "type": "function"
    },
    {
      "inputs": [
        {
          "internalType": "int256",
          "name": "_n",
          "type": "int256"
        }
      ],
      "name": "averageAPRAcrossLastNHarvests",
      "outputs": [
        {
          "internalType": "int256",
          "name": "",
          "type": "int256"
        }
      ],
      "stateMutability": "view",
      "type": "function"
    },
    {
      "inputs": [],
      "name": "balanceOf",
      "outputs": [
        {
          "internalType": "uint256",
          "name": "",
          "type": "uint256"
        }
      ],
      "stateMutability": "view",
      "type": "function"
    },
    {
      "inputs": [],
      "name": "balanceOfPools",
      "outputs": [
        {
          "internalType": "uint256",
          "name": "poolBalance",
          "type": "uint256"
        }
      ],
      "stateMutability": "view",
      "type": "function"
    },
    {
      "inputs": [],
      "name": "balanceOfWant",
      "outputs": [
        {
          "internalType": "uint256",
          "name": "",
          "type": "uint256"
        }
      ],
      "stateMutability": "view",
      "type": "function"
    },
    {
      "inputs": [
        {
          "internalType": "uint256",
          "name": "_startIndex",
          "type": "uint256"
        },
        {
          "internalType": "uint256",
          "name": "_endIndex",
          "type": "uint256"
        }
      ],
      "name": "calculateAPRUsingLogs",
      "outputs": [
        {
          "internalType": "int256",
          "name": "",
          "type": "int256"
        }
      ],
      "stateMutability": "view",
      "type": "function"
    },
    {
      "inputs": [],
      "name": "callFee",
      "outputs": [
        {
          "internalType": "uint256",
          "name": "",
          "type": "uint256"
        }
      ],
      "stateMutability": "view",
      "type": "function"
    },
    {
      "inputs": [],
      "name": "clearUpgradeCooldown",
      "outputs": [],
      "stateMutability": "nonpayable",
      "type": "function"
    },
    {
      "inputs": [],
      "name": "deposit",
      "outputs": [],
      "stateMutability": "nonpayable",
      "type": "function"
    },
    {
      "inputs": [],
      "name": "depositPool",
      "outputs": [
        {
          "internalType": "address",
          "name": "",
          "type": "address"
        }
      ],
      "stateMutability": "view",
      "type": "function"
    },
    {
      "inputs": [],
      "name": "estimateHarvest",
      "outputs": [
        {
          "internalType": "uint256",
          "name": "profit",
          "type": "uint256"
        },
        {
          "internalType": "uint256",
          "name": "callFeeToUser",
          "type": "uint256"
        }
      ],
      "stateMutability": "view",
      "type": "function"
    },
    {
      "inputs": [],
      "name": "getAvailableBalance",
      "outputs": [
        {
          "internalType": "uint256",
          "name": "availableBalance",
          "type": "uint256"
        }
      ],
      "stateMutability": "view",
      "type": "function"
    },
    {
      "inputs": [],
      "name": "getPoolBalances",
      "outputs": [
        {
          "components": [
            {
              "internalType": "address",
              "name": "poolAddress",
              "type": "address"
            },
            {
              "internalType": "uint256",
              "name": "allocation",
              "type": "uint256"
            }
          ],
          "internalType": "struct ReaperStrategyLendingOptimizer.PoolAllocation[]",
          "name": "",
          "type": "tuple[]"
        }
      ],
      "stateMutability": "view",
      "type": "function"
    },
    {
      "inputs": [
        {
          "internalType": "bytes32",
          "name": "role",
          "type": "bytes32"
        }
      ],
      "name": "getRoleAdmin",
      "outputs": [
        {
          "internalType": "bytes32",
          "name": "",
          "type": "bytes32"
        }
      ],
      "stateMutability": "view",
      "type": "function"
    },
    {
      "inputs": [
        {
          "internalType": "bytes32",
          "name": "role",
          "type": "bytes32"
        },
        {
          "internalType": "uint256",
          "name": "index",
          "type": "uint256"
        }
      ],
      "name": "getRoleMember",
      "outputs": [
        {
          "internalType": "address",
          "name": "",
          "type": "address"
        }
      ],
      "stateMutability": "view",
      "type": "function"
    },
    {
      "inputs": [
        {
          "internalType": "bytes32",
          "name": "role",
          "type": "bytes32"
        }
      ],
      "name": "getRoleMemberCount",
      "outputs": [
        {
          "internalType": "uint256",
          "name": "",
          "type": "uint256"
        }
      ],
      "stateMutability": "view",
      "type": "function"
    },
    {
      "inputs": [],
      "name": "getSuppliedToPools",
      "outputs": [
        {
          "internalType": "uint256[]",
          "name": "",
          "type": "uint256[]"
        }
      ],
      "stateMutability": "view",
      "type": "function"
    },
    {
      "inputs": [],
      "name": "getUsedPools",
      "outputs": [
        {
          "internalType": "address[]",
          "name": "",
          "type": "address[]"
        }
      ],
      "stateMutability": "view",
      "type": "function"
    },
    {
      "inputs": [
        {
          "internalType": "bytes32",
          "name": "role",
          "type": "bytes32"
        },
        {
          "internalType": "address",
          "name": "account",
          "type": "address"
        }
      ],
      "name": "grantRole",
      "outputs": [],
      "stateMutability": "nonpayable",
      "type": "function"
    },
    {
      "inputs": [],
      "name": "harvest",
      "outputs": [],
      "stateMutability": "nonpayable",
      "type": "function"
    },
    {
      "inputs": [
        {
          "internalType": "uint256",
          "name": "",
          "type": "uint256"
        }
      ],
      "name": "harvestLog",
      "outputs": [
        {
          "internalType": "uint256",
          "name": "timestamp",
          "type": "uint256"
        },
        {
          "internalType": "uint256",
          "name": "vaultSharePrice",
          "type": "uint256"
        }
      ],
      "stateMutability": "view",
      "type": "function"
    },
    {
      "inputs": [],
      "name": "harvestLogCadence",
      "outputs": [
        {
          "internalType": "uint256",
          "name": "",
          "type": "uint256"
        }
      ],
      "stateMutability": "view",
      "type": "function"
    },
    {
      "inputs": [],
      "name": "harvestLogLength",
      "outputs": [
        {
          "internalType": "uint256",
          "name": "",
          "type": "uint256"
        }
      ],
      "stateMutability": "view",
      "type": "function"
    },
    {
      "inputs": [
        {
          "internalType": "bytes32",
          "name": "role",
          "type": "bytes32"
        },
        {
          "internalType": "address",
          "name": "account",
          "type": "address"
        }
      ],
      "name": "hasRole",
      "outputs": [
        {
          "internalType": "bool",
          "name": "",
          "type": "bool"
        }
      ],
      "stateMutability": "view",
      "type": "function"
    },
    {
      "inputs": [
        {
          "internalType": "address",
          "name": "_vault",
          "type": "address"
        },
        {
          "internalType": "address[]",
          "name": "_feeRemitters",
          "type": "address[]"
        },
        {
          "internalType": "address[]",
          "name": "_strategists",
          "type": "address[]"
        },
        {
          "internalType": "uint256",
          "name": "_initialPoolIndex",
          "type": "uint256"
        },
        {
          "internalType": "enum ReaperStrategyLendingOptimizer.RouterType",
          "name": "_routerType",
          "type": "uint8"
        }
      ],
      "name": "initialize",
      "outputs": [],
      "stateMutability": "nonpayable",
      "type": "function"
    },
    {
      "inputs": [],
      "name": "initiateUpgradeCooldown",
      "outputs": [],
      "stateMutability": "nonpayable",
      "type": "function"
    },
    {
      "inputs": [],
      "name": "lastHarvestTimestamp",
      "outputs": [
        {
          "internalType": "uint256",
          "name": "",
          "type": "uint256"
        }
      ],
      "stateMutability": "view",
      "type": "function"
    },
    {
      "inputs": [],
      "name": "maxPools",
      "outputs": [
        {
          "internalType": "uint256",
          "name": "",
          "type": "uint256"
        }
      ],
      "stateMutability": "view",
      "type": "function"
    },
    {
      "inputs": [],
      "name": "maxWantRemainingToRemovePool",
      "outputs": [
        {
          "internalType": "uint256",
          "name": "",
          "type": "uint256"
        }
      ],
      "stateMutability": "view",
      "type": "function"
    },
    {
      "inputs": [],
      "name": "minProfitToChargeFees",
      "outputs": [
        {
          "internalType": "uint256",
          "name": "",
          "type": "uint256"
        }
      ],
      "stateMutability": "view",
      "type": "function"
    },
    {
      "inputs": [],
      "name": "minWantToDepositOrWithdraw",
      "outputs": [
        {
          "internalType": "uint256",
          "name": "",
          "type": "uint256"
        }
      ],
      "stateMutability": "view",
      "type": "function"
    },
    {
      "inputs": [],
      "name": "panic",
      "outputs": [],
      "stateMutability": "nonpayable",
      "type": "function"
    },
    {
      "inputs": [],
      "name": "pause",
      "outputs": [],
      "stateMutability": "nonpayable",
      "type": "function"
    },
    {
      "inputs": [],
      "name": "paused",
      "outputs": [
        {
          "internalType": "bool",
          "name": "",
          "type": "bool"
        }
      ],
      "stateMutability": "view",
      "type": "function"
    },
    {
      "inputs": [],
      "name": "profitSinceHarvest",
      "outputs": [
        {
          "internalType": "uint256",
          "name": "profit",
          "type": "uint256"
        }
      ],
      "stateMutability": "view",
      "type": "function"
    },
    {
      "inputs": [],
      "name": "proxiableUUID",
      "outputs": [
        {
          "internalType": "bytes32",
          "name": "",
          "type": "bytes32"
        }
      ],
      "stateMutability": "view",
      "type": "function"
    },
    {
      "inputs": [
        {
          "components": [
            {
              "internalType": "address",
              "name": "poolAddress",
              "type": "address"
            },
            {
              "internalType": "uint256",
              "name": "allocation",
              "type": "uint256"
            }
          ],
          "internalType": "struct ReaperStrategyLendingOptimizer.PoolAllocation[]",
          "name": "_allocations",
          "type": "tuple[]"
        }
      ],
      "name": "rebalance",
      "outputs": [],
      "stateMutability": "nonpayable",
      "type": "function"
    },
    {
      "inputs": [],
      "name": "reclaimWant",
      "outputs": [],
      "stateMutability": "nonpayable",
      "type": "function"
    },
    {
      "inputs": [
        {
          "internalType": "address",
          "name": "_pool",
          "type": "address"
        }
      ],
      "name": "removeUsedPool",
      "outputs": [],
      "stateMutability": "nonpayable",
      "type": "function"
    },
    {
      "inputs": [
        {
          "internalType": "address[]",
          "name": "_poolsToRemove",
          "type": "address[]"
        }
      ],
      "name": "removeUsedPools",
      "outputs": [],
      "stateMutability": "nonpayable",
      "type": "function"
    },
    {
      "inputs": [
        {
          "internalType": "bytes32",
          "name": "role",
          "type": "bytes32"
        },
        {
          "internalType": "address",
          "name": "account",
          "type": "address"
        }
      ],
      "name": "renounceRole",
      "outputs": [],
      "stateMutability": "nonpayable",
      "type": "function"
    },
    {
      "inputs": [],
      "name": "retireStrat",
      "outputs": [],
      "stateMutability": "nonpayable",
      "type": "function"
    },
    {
      "inputs": [
        {
          "internalType": "bytes32",
          "name": "role",
          "type": "bytes32"
        },
        {
          "internalType": "address",
          "name": "account",
          "type": "address"
        }
      ],
      "name": "revokeRole",
      "outputs": [],
      "stateMutability": "nonpayable",
      "type": "function"
    },
    {
      "inputs": [],
      "name": "securityFee",
      "outputs": [
        {
          "internalType": "uint256",
          "name": "",
          "type": "uint256"
        }
      ],
      "stateMutability": "view",
      "type": "function"
    },
    {
      "inputs": [
        {
          "internalType": "uint256",
          "name": "_maxPools",
          "type": "uint256"
        }
      ],
      "name": "setMaxPools",
      "outputs": [],
      "stateMutability": "nonpayable",
      "type": "function"
    },
    {
      "inputs": [
        {
          "internalType": "uint256",
          "name": "_maxWantRemainingToRemovePool",
          "type": "uint256"
        }
      ],
      "name": "setMaxWantRemainingToRemovePool",
      "outputs": [],
      "stateMutability": "nonpayable",
      "type": "function"
    },
    {
      "inputs": [
        {
          "internalType": "uint256",
          "name": "_minProfitToChargeFees",
          "type": "uint256"
        }
      ],
      "name": "setMinProfitToChargeFees",
      "outputs": [],
      "stateMutability": "nonpayable",
      "type": "function"
    },
    {
      "inputs": [
        {
          "internalType": "uint256",
          "name": "_minWantToDepositOrWithdraw",
          "type": "uint256"
        }
      ],
      "name": "setMinWantToDepositOrWithdraw",
      "outputs": [],
      "stateMutability": "nonpayable",
      "type": "function"
    },
    {
      "inputs": [
        {
          "internalType": "bool",
          "name": "_shouldHarvestOnDeposit",
          "type": "bool"
        }
      ],
      "name": "setShouldHarvestOnDeposit",
      "outputs": [],
      "stateMutability": "nonpayable",
      "type": "function"
    },
    {
      "inputs": [
        {
          "internalType": "bool",
          "name": "_shouldHarvestOnWithdraw",
          "type": "bool"
        }
      ],
      "name": "setShouldHarvestOnWithdraw",
      "outputs": [],
      "stateMutability": "nonpayable",
      "type": "function"
    },
    {
      "inputs": [
        {
          "internalType": "uint256",
          "name": "_withdrawSlippageTolerance",
          "type": "uint256"
        }
      ],
      "name": "setWithdrawSlippageTolerance",
      "outputs": [],
      "stateMutability": "nonpayable",
      "type": "function"
    },
    {
      "inputs": [],
      "name": "sharePriceSnapshot",
      "outputs": [
        {
          "internalType": "uint256",
          "name": "",
          "type": "uint256"
        }
      ],
      "stateMutability": "view",
      "type": "function"
    },
    {
      "inputs": [],
      "name": "shouldHarvestOnDeposit",
      "outputs": [
        {
          "internalType": "bool",
          "name": "",
          "type": "bool"
        }
      ],
      "stateMutability": "view",
      "type": "function"
    },
    {
      "inputs": [],
      "name": "shouldHarvestOnWithdraw",
      "outputs": [
        {
          "internalType": "bool",
          "name": "",
          "type": "bool"
        }
      ],
      "stateMutability": "view",
      "type": "function"
    },
    {
      "inputs": [],
      "name": "strategistFee",
      "outputs": [
        {
          "internalType": "uint256",
          "name": "",
          "type": "uint256"
        }
      ],
      "stateMutability": "view",
      "type": "function"
    },
    {
      "inputs": [],
      "name": "strategistRemitter",
      "outputs": [
        {
          "internalType": "address",
          "name": "",
          "type": "address"
        }
      ],
      "stateMutability": "view",
      "type": "function"
    },
    {
      "inputs": [
        {
          "internalType": "bytes4",
          "name": "interfaceId",
          "type": "bytes4"
        }
      ],
      "name": "supportsInterface",
      "outputs": [
        {
          "internalType": "bool",
          "name": "",
          "type": "bool"
        }
      ],
      "stateMutability": "view",
      "type": "function"
    },
    {
      "inputs": [],
      "name": "totalFee",
      "outputs": [
        {
          "internalType": "uint256",
          "name": "",
          "type": "uint256"
        }
      ],
      "stateMutability": "view",
      "type": "function"
    },
    {
      "inputs": [],
      "name": "treasury",
      "outputs": [
        {
          "internalType": "address",
          "name": "",
          "type": "address"
        }
      ],
      "stateMutability": "view",
      "type": "function"
    },
    {
      "inputs": [],
      "name": "treasuryFee",
      "outputs": [
        {
          "internalType": "uint256",
          "name": "",
          "type": "uint256"
        }
      ],
      "stateMutability": "view",
      "type": "function"
    },
    {
      "inputs": [],
      "name": "unpause",
      "outputs": [],
      "stateMutability": "nonpayable",
      "type": "function"
    },
    {
      "inputs": [],
      "name": "updateExchangeRates",
      "outputs": [],
      "stateMutability": "nonpayable",
      "type": "function"
    },
    {
      "inputs": [
        {
          "internalType": "uint256",
          "name": "_callFee",
          "type": "uint256"
        },
        {
          "internalType": "uint256",
          "name": "_treasuryFee",
          "type": "uint256"
        },
        {
          "internalType": "uint256",
          "name": "_strategistFee",
          "type": "uint256"
        }
      ],
      "name": "updateFees",
      "outputs": [
        {
          "internalType": "bool",
          "name": "",
          "type": "bool"
        }
      ],
      "stateMutability": "nonpayable",
      "type": "function"
    },
    {
      "inputs": [
        {
          "internalType": "uint256",
          "name": "_newCadenceInSeconds",
          "type": "uint256"
        }
      ],
      "name": "updateHarvestLogCadence",
      "outputs": [],
      "stateMutability": "nonpayable",
      "type": "function"
    },
    {
      "inputs": [
        {
          "internalType": "uint256",
          "name": "_securityFee",
          "type": "uint256"
        }
      ],
      "name": "updateSecurityFee",
      "outputs": [],
      "stateMutability": "nonpayable",
      "type": "function"
    },
    {
      "inputs": [
        {
          "internalType": "address",
          "name": "_newStrategistRemitter",
          "type": "address"
        }
      ],
      "name": "updateStrategistRemitter",
      "outputs": [],
      "stateMutability": "nonpayable",
      "type": "function"
    },
    {
      "inputs": [
        {
          "internalType": "uint256",
          "name": "_totalFee",
          "type": "uint256"
        }
      ],
      "name": "updateTotalFee",
      "outputs": [],
      "stateMutability": "nonpayable",
      "type": "function"
    },
    {
      "inputs": [
        {
          "internalType": "address",
          "name": "newTreasury",
          "type": "address"
        }
      ],
      "name": "updateTreasury",
      "outputs": [
        {
          "internalType": "bool",
          "name": "",
          "type": "bool"
        }
      ],
      "stateMutability": "nonpayable",
      "type": "function"
    },
    {
      "inputs": [],
      "name": "upgradeProposalTime",
      "outputs": [
        {
          "internalType": "uint256",
          "name": "",
          "type": "uint256"
        }
      ],
      "stateMutability": "view",
      "type": "function"
    },
    {
      "inputs": [
        {
          "internalType": "address",
          "name": "newImplementation",
          "type": "address"
        }
      ],
      "name": "upgradeTo",
      "outputs": [],
      "stateMutability": "nonpayable",
      "type": "function"
    },
    {
      "inputs": [
        {
          "internalType": "address",
          "name": "newImplementation",
          "type": "address"
        },
        {
          "internalType": "bytes",
          "name": "data",
          "type": "bytes"
        }
      ],
      "name": "upgradeToAndCall",
      "outputs": [],
      "stateMutability": "payable",
      "type": "function"
    },
    {
      "inputs": [],
      "name": "vault",
      "outputs": [
        {
          "internalType": "address",
          "name": "",
          "type": "address"
        }
      ],
      "stateMutability": "view",
      "type": "function"
    },
    {
      "inputs": [],
      "name": "want",
      "outputs": [
        {
          "internalType": "address",
          "name": "",
          "type": "address"
        }
      ],
      "stateMutability": "view",
      "type": "function"
    },
    {
      "inputs": [
        {
          "internalType": "address",
          "name": "_pool",
          "type": "address"
        }
      ],
      "name": "wantSuppliedToPool",
      "outputs": [
        {
          "internalType": "uint256",
          "name": "wantBal",
          "type": "uint256"
        }
      ],
      "stateMutability": "view",
      "type": "function"
    },
    {
      "inputs": [
        {
          "internalType": "uint256",
          "name": "_amount",
          "type": "uint256"
        }
      ],
      "name": "withdraw",
      "outputs": [],
      "stateMutability": "nonpayable",
      "type": "function"
    },
    {
      "inputs": [
        {
          "internalType": "address",
          "name": "_pool",
          "type": "address"
        }
      ],
      "name": "withdrawFromPool",
      "outputs": [
        {
          "internalType": "uint256",
          "name": "",
          "type": "uint256"
        }
      ],
      "stateMutability": "nonpayable",
      "type": "function"
    },
    {
      "inputs": [],
      "name": "withdrawSlippageTolerance",
      "outputs": [
        {
          "internalType": "uint256",
          "name": "",
          "type": "uint256"
        }
      ],
      "stateMutability": "view",
      "type": "function"
    }
  ],
  "bytecode": "0x60a0604052306080523480156200001557600080fd5b50600054610100900460ff16620000335760005460ff16156200003d565b6200003d620000e2565b620000a55760405162461bcd60e51b815260206004820152602e60248201527f496e697469616c697a61626c653a20636f6e747261637420697320616c72656160448201526d191e481a5b9a5d1a585b1a5e995960921b606482015260840160405180910390fd5b600054610100900460ff16158015620000c8576000805461ffff19166101011790555b8015620000db576000805461ff00191690555b506200010f565b6000620000fa306200010060201b620033491760201c565b15905090565b6001600160a01b03163b151590565b60805161591a62000147600039600081816115e70152818161162701528181611aa801528181611ae80152611cbc015261591a6000f3fe6080604052600436106105025760003560e01c80637f51bb1f11610297578063bc063e1a11610165578063e3254ebc116100cc578063f37ae32811610085578063f37ae32814610ef5578063f4852a8114610f15578063f4e590af14610f35578063fb61778714610f55578063fbfa77cf14610f6a578063fcc225e214610f8b57600080fd5b8063e3254ebc14610e3f578063e46257d214610e5f578063e5f7b40614610e7f578063ec90b12214610e9f578063ecf173ff14610ebf578063f009a1e014610ed557600080fd5b8063ca15c8731161011e578063ca15c87314610d9c578063cc32d17614610dbc578063d0e30db014610dd3578063d32b960414610de8578063d547741f14610e08578063d68e130214610e2857600080fd5b8063bc063e1a14610d0c578063c0413fb014610d22578063c191464e14610d39578063c1a3d44c14610d50578063c30e659b14610d65578063c80da26b14610d7a57600080fd5b806390321e1a11610209578063a217fddf116101c2578063a217fddf14610c39578063a21ae9db14610c4e578063a5ada7e514610c6e578063b29d404b14610c8e578063b54effcc14610cb8578063ba6aab8d14610cec57600080fd5b806390321e1a14610b8a57806391d1485414610ba1578063997d161c14610bc15780639cfdede314610bd85780639fa6b47a14610bfa578063a005d01e14610c2257600080fd5b8063888799851161025b5780638887998514610ad25780638888f9f614610ae75780638bf9c37814610b085780638cf5588214610b285780638f674aac14610b485780639010d07c14610b6a57600080fd5b80637f51bb1f14610a3f578063809dab6a14610a5f57806382b0b17514610a745780638456cb5914610a89578063862a179e14610a9e57600080fd5b806336568abe116103d4578063526e10801161034657806361d027b3116102ff57806361d027b3146109a6578063651eebfe146109c7578063722713f7146109de57806372c95e56146109f3578063737f2fb914610a0a57806377caa61a14610a2a57600080fd5b8063526e10801461090c578063527393501461092357806352d1902d146109385780635c975abb1461094d5780635e49b33a14610966578063615911491461098657600080fd5b80634641257d116103985780634641257d146108825780634700d305146108975780634870dd9a146108ac5780634e55dedb146108c25780634f1ef286146108d757806352375bb1146108ea57600080fd5b806336568abe146107ed5780633659cfe61461080d5780633eecaf7c1461082d5780633f4ba83a1461084d5780633fada1fa1461086257600080fd5b80632257a738116104785780632e1a7d4d116104315780632e1a7d4d146107395780632f2ff15d14610759578063300107d11461077957806333db63081461079957806334816d35146107ae57806335647c54146107c557600080fd5b80632257a73814610684578063248a9ca31461069b57806325ed32ca146106cb5780632a343709146106e25780632b7a61da146107035780632d6f4baa1461072357600080fd5b80631df4ccfc116104ca5780631df4ccfc146105b05780631f1fcd51146105c75780631f991770146106015780632136404f1461061c57806321dbe8761461063c578063224290851461066457600080fd5b806301ffc9a7146105075780630d952cfa1461053c57806313c6c4751461055e5780631424a3461461058157806316d3bfbb14610598575b600080fd5b34801561051357600080fd5b50610527610522366004614d54565b610fb3565b60405190151581526020015b60405180910390f35b34801561054857600080fd5b5061055c610557366004614d8c565b610fde565b005b34801561056a57600080fd5b50610573600a81565b604051908152602001610533565b34801561058d57600080fd5b5061057361016f5481565b3480156105a457600080fd5b506105736301e1338081565b3480156105bc57600080fd5b506105736101665481565b3480156105d357600080fd5b506105e960008051602061585e83398151915281565b6040516001600160a01b039091168152602001610533565b34801561060d57600080fd5b50610174546105279060ff1681565b34801561062857600080fd5b50610573610637366004614dbe565b611001565b34801561064857600080fd5b506105e97321be370d5312f44cb42ce377bc9b8a0cef1a4c8381565b34801561067057600080fd5b5061052761067f366004614ddb565b6110fb565b34801561069057600080fd5b506105736101615481565b3480156106a757600080fd5b506105736106b6366004614e07565b600090815260c9602052604090206001015490565b3480156106d757600080fd5b506105736202a30081565b3480156106ee57600080fd5b5061016e546105e9906001600160a01b031681565b34801561070f57600080fd5b5061055c61071e366004614f11565b61121c565b34801561072f57600080fd5b5061015f54610573565b34801561074557600080fd5b5061055c610754366004614e07565b6113b7565b34801561076557600080fd5b5061055c610774366004614fa1565b6114ba565b34801561078557600080fd5b5061055c61079436600461501c565b6114e5565b3480156107a557600080fd5b5061055c611550565b3480156107ba57600080fd5b506105736101735481565b3480156107d157600080fd5b506105e973283e62cfe14b352db8e30a9575481dcbf589ad9881565b3480156107f957600080fd5b5061055c610808366004614fa1565b611562565b34801561081957600080fd5b5061055c610828366004614dbe565b6115dc565b34801561083957600080fd5b5061055c610848366004614dbe565b6116bc565b34801561085957600080fd5b5061055c611801565b34801561086e57600080fd5b5061055c61087d366004614e07565b611819565b34801561088e57600080fd5b5061055c61186a565b3480156108a357600080fd5b5061055c6119b6565b3480156108b857600080fd5b5061057361271081565b3480156108ce57600080fd5b506105736119ce565b61055c6108e536600461505d565b611a9d565b3480156108f657600080fd5b506108ff611b6a565b6040516105339190615104565b34801561091857600080fd5b506105736101695481565b34801561092f57600080fd5b50610573611c62565b34801561094457600080fd5b50610573611caf565b34801561095957600080fd5b5061012d5460ff16610527565b34801561097257600080fd5b5061055c610981366004614e07565b611d62565b34801561099257600080fd5b5061055c6109a1366004614e07565b611dc7565b3480156109b257600080fd5b50610163546105e9906001600160a01b031681565b3480156109d357600080fd5b506105736101625481565b3480156109ea57600080fd5b50610573611e1a565b3480156109ff57600080fd5b506105736101605481565b348015610a1657600080fd5b5061055c610a25366004614e07565b611e3b565b348015610a3657600080fd5b5061055c611e49565b348015610a4b57600080fd5b50610527610a5a366004614dbe565b611f66565b348015610a6b57600080fd5b50610573611f9b565b348015610a8057600080fd5b5061055c61207b565b348015610a9557600080fd5b5061055c61208f565b348015610aaa57600080fd5b506105737f71a9859d7dd21b24504a6f306077ffc2d510b4d4b61128e931fe937441ad183681565b348015610ade57600080fd5b5061055c61209f565b348015610af357600080fd5b50610165546105e9906001600160a01b031681565b348015610b1457600080fd5b50610573610b23366004614dbe565b6120cb565b348015610b3457600080fd5b50610573610b4336600461515c565b61233d565b348015610b5457600080fd5b50610b5d612472565b60405161053391906151c2565b348015610b7657600080fd5b506105e9610b8536600461515c565b612522565b348015610b9657600080fd5b506105736101675481565b348015610bad57600080fd5b50610527610bbc366004614fa1565b61253a565b348015610bcd57600080fd5b506105736101705481565b348015610be457600080fd5b506105736000805160206158c583398151915281565b348015610c0657600080fd5b506105e973f491e7b69e4244ad4002bc14e878a34207e38c2981565b348015610c2e57600080fd5b506105736101725481565b348015610c4557600080fd5b50610573600081565b348015610c5a57600080fd5b5061055c610c69366004614d8c565b612565565b348015610c7a57600080fd5b5061055c610c89366004614e07565b612581565b348015610c9a57600080fd5b50610ca361258f565b60408051928352602083019190915201610533565b348015610cc457600080fd5b506105737fa948adc7068532b3bc0cbefb673a9d9c287bc35ef1f8a3a71353d54d7149def781565b348015610cf857600080fd5b5061055c610d07366004614e07565b6127bd565b348015610d1857600080fd5b506105736103e881565b348015610d2e57600080fd5b5061057361016d5481565b348015610d4557600080fd5b506105736101715481565b348015610d5c57600080fd5b5061057361281c565b348015610d7157600080fd5b50610573606481565b348015610d8657600080fd5b50610d8f61288c565b60405161053391906151d5565b348015610da857600080fd5b50610573610db7366004614e07565b61293f565b348015610dc857600080fd5b506105736101685481565b348015610ddf57600080fd5b5061055c612956565b348015610df457600080fd5b5061055c610e03366004614e07565b612982565b348015610e1457600080fd5b5061055c610e23366004614fa1565b612a0c565b348015610e3457600080fd5b5061057361016a5481565b348015610e4b57600080fd5b5061055c610e5a366004615219565b612a32565b348015610e6b57600080fd5b5061055c610e7a366004614dbe565b612e2d565b348015610e8b57600080fd5b5061055c610e9a366004615245565b612f23565b348015610eab57600080fd5b5061055c610eba366004614e07565b612f73565b348015610ecb57600080fd5b5061057361138881565b348015610ee157600080fd5b5061055c610ef036600461501c565b612f81565b348015610f0157600080fd5b50610ca3610f10366004614e07565b613239565b348015610f2157600080fd5b50610573610f30366004614e07565b613268565b348015610f4157600080fd5b506101745461052790610100900460ff1681565b348015610f6157600080fd5b5061055c613339565b348015610f7657600080fd5b50610164546105e9906001600160a01b031681565b348015610f9757600080fd5b506105e9733f7e61c5dd29f9380b270551e438b65c29183a7c81565b60006001600160e01b03198216635a05180f60e01b1480610fd85750610fd882613358565b92915050565b610fe661338d565b61017480549115156101000261ff0019909216919091179055565b6040516370a0823160e01b815230600482015260009081906001600160a01b038416906370a0823190602401602060405180830381865afa15801561104a573d6000803e3d6000fd5b505050506040513d601f19601f8201168201806040525081019061106e91906152b9565b90506000836001600160a01b031663be340e326040518163ffffffff1660e01b8152600401602060405180830381865afa1580156110b0573d6000803e3d6000fd5b505050506040513d601f19601f820116820180604052508101906110d491906152b9565b9050670de0b6b3a76400006110e982846152e8565b6110f3919061531d565b949350505050565b60008061110881336133f3565b6127106111158587615331565b146111605760405162461bcd60e51b815260206004820152601660248201527539bab690109e902822a921a2a72a2fa224ab24a9a7a960511b60448201526064015b60405180910390fd5b6113888311156111be5760405162461bcd60e51b815260206004820152602360248201527f7374726174656769737420666565203e20535452415445474953545f4d41585f60448201526246454560e81b6064820152608401611157565b61016785905561016884905561016983905560408051868152602081018690529081018490527fcf8a1e1d5f09cf3c97dbb653cd9a4d7aace9292fbc1bb8211febf2d400febbdd9060600160405180910390a1506001949350505050565b600054610100900460ff166112375760005460ff161561123b565b303b155b61129e5760405162461bcd60e51b815260206004820152602e60248201527f496e697469616c697a61626c653a20636f6e747261637420697320616c72656160448201526d191e481a5b9a5d1a585b1a5e995960921b6064820152608401611157565b600054610100900460ff161580156112c0576000805461ffff19166101011790555b6112cb868686613457565b856001600160a01b03166377c7b8fc6040518163ffffffff1660e01b8152600401602060405180830381865afa158015611309573d6000803e3d6000fd5b505050506040513d601f19601f8201168201806040525081019061132d91906152b9565b61016f55602861016d55600a610171819055662386f26fc10000610170556101725560646101735561135f8383612a32565b61136c61016b6000613666565b61016e80546001600160a01b0319166001600160a01b0392909216919091179055610174805461ffff191661010117905580156113af576000805461ff00191690555b505050505050565b610164546001600160a01b031633146113fb5760405162461bcd60e51b8152602060048201526006602482015265085d985d5b1d60d21b6044820152606401611157565b806114395760405162461bcd60e51b815260206004820152600e60248201526d1a5b9d985b1a5908185b5bdd5b9d60921b6044820152606401611157565b611441611e1a565b8111156114815760405162461bcd60e51b815260206004820152600e60248201526d1a5b9d985b1a5908185b5bdd5b9d60921b6044820152606401611157565b600061271061016a548361149591906152e8565b61149f919061531d565b90506114ab8183615349565b91506114b682613672565b5050565b600082815260c960205260409020600101546114d681336133f3565b6114e0838361378e565b505050565b6114ed6137b0565b8060005b8181101561154a57600084848381811061150d5761150d615360565b9050604002018036038101906115239190615376565b905061153781602001518260000151612a32565b5080611542816153cc565b9150506114f1565b50505050565b6115586137b0565b6115606137f8565b565b6001600160a01b03811633146115d25760405162461bcd60e51b815260206004820152602f60248201527f416363657373436f6e74726f6c3a2063616e206f6e6c792072656e6f756e636560448201526e103937b632b9903337b91039b2b63360891b6064820152608401611157565b6114b68282613803565b306001600160a01b037f00000000000000000000000000000000000000000000000000000000000000001614156116255760405162461bcd60e51b8152600401611157906153e7565b7f00000000000000000000000000000000000000000000000000000000000000006001600160a01b031661166e60008051602061587e833981519152546001600160a01b031690565b6001600160a01b0316146116945760405162461bcd60e51b815260040161115790615433565b61169d81613825565b604080516000808252602082019092526116b9918391906138a8565b50565b6116c46137b0565b60016116d161016b613a13565b1161171e5760405162461bcd60e51b815260206004820152601960248201527f4d7573742068617665206174206c65617374203120706f6f6c000000000000006044820152606401611157565b6101735461172b82611001565b106117715760405162461bcd60e51b815260206004820152601660248201527515d85b9d081a5cc81cdd1a5b1b081cdd5c1c1b1a595960521b6044820152606401611157565b61177d61016b82613a1d565b6117b95760405162461bcd60e51b815260206004820152600d60248201526c141bdbdb081b9bdd081d5cd959609a1b6044820152606401611157565b61016e546001600160a01b03828116911614156116b9576117dd61016b6000613666565b61016e80546001600160a01b0319166001600160a01b039290921691909117905550565b61180961338d565b611811613a32565b611560612956565b61182161338d565b629896808111156118645760405162461bcd60e51b815260206004820152600d60248201526c041626f7665206d61782063617609c1b6044820152606401611157565b61017355565b61012d5460ff161561188e5760405162461bcd60e51b81526004016111579061547f565b611896613ac7565b6101605461015f80546118ab90600190615349565b815481106118bb576118bb615360565b9060005260206000209060020201600001546118d79190615331565b421061198457604080518082018252428152610164548251631df1ee3f60e21b8152925161015f936020808501936001600160a01b0316926377c7b8fc9260048082019392918290030181865afa158015611936573d6000803e3d6000fd5b505050506040513d601f19601f8201168201806040525081019061195a91906152b9565b90528154600181810184556000938452602093849020835160029093020191825592909101519101555b426101615560405133907f577a37fdb49a88d66684922c6f913df5239b4f214b2b97c53ef8e3bbb2034cb590600090a2565b6119be61338d565b6119c66137f8565b61156061208f565b60008061016460009054906101000a90046001600160a01b03166001600160a01b03166377c7b8fc6040518163ffffffff1660e01b8152600401602060405180830381865afa158015611a25573d6000803e3d6000fd5b505050506040513d601f19601f82011682018060405250810190611a4991906152b9565b905061016f548111611a5d57600091505090565b600061016f5482611a6e9190615349565b9050670de0b6b3a764000081611a82611e1a565b611a8c91906152e8565b611a96919061531d565b9250505090565b306001600160a01b037f0000000000000000000000000000000000000000000000000000000000000000161415611ae65760405162461bcd60e51b8152600401611157906153e7565b7f00000000000000000000000000000000000000000000000000000000000000006001600160a01b0316611b2f60008051602061587e833981519152546001600160a01b031690565b6001600160a01b031614611b555760405162461bcd60e51b815260040161115790615433565b611b5e82613825565b6114b6828260016138a8565b60606000611b7961016b613a13565b90506000816001600160401b03811115611b9557611b95614e20565b604051908082528060200260200182016040528015611bda57816020015b6040805180820190915260008082526020820152815260200190600190039081611bb35790505b50905060005b82811015611c5b576000611bf661016b83613666565b90506000611c0382611001565b905060006040518060400160405280846001600160a01b0316815260200183815250905080858581518110611c3a57611c3a615360565b60200260200101819052505050508080611c53906153cc565b915050611be0565b5092915050565b600080611c7061016b613a13565b905060005b81811015611caa57611c8c61063761016b83613666565b611c969084615331565b925080611ca2816153cc565b915050611c75565b505090565b6000306001600160a01b037f00000000000000000000000000000000000000000000000000000000000000001614611d4f5760405162461bcd60e51b815260206004820152603860248201527f555550535570677261646561626c653a206d757374206e6f742062652063616c60448201527f6c6564207468726f7567682064656c656761746563616c6c00000000000000006064820152608401611157565b5060008051602061587e83398151915290565b6000611d6e81336133f3565b8115801590611d7e575060648211155b611dc05760405162461bcd60e51b8152602060048201526013602482015272496e76616c6964206e72206f6620706f6f6c7360681b6044820152606401611157565b5061016d55565b6000611dd381336133f3565b600a821115611e135760405162461bcd60e51b815260206004820152600c60248201526b66656520746f20686967682160a01b6044820152606401611157565b5061016a55565b6000611e24611c62565b611e2c61281c565b611e369190615331565b905090565b611e4361338d565b61017055565b6000611e5661016b613a13565b905060005b818110156114b6576000611e7161016b83613666565b6040516370a0823160e01b81523060048201529091506000906001600160a01b038316906370a0823190602401602060405180830381865afa158015611ebb573d6000803e3d6000fd5b505050506040513d601f19601f82011682018060405250810190611edf91906152b9565b9050610172548110611f5157816001600160a01b0316633ba0b9a96040518163ffffffff1660e01b81526004016020604051808303816000875af1158015611f2b573d6000803e3d6000fd5b505050506040513d601f19601f82011682018060405250810190611f4f91906152b9565b505b50508080611f5e906153cc565b915050611e5b565b600080611f7381336133f3565b61016380546001600160a01b0385166001600160a01b03199091161790556001915050919050565b600080611fa961016b613a13565b905060005b81811015611caa576000611fc461016b83613666565b90506000611fd182611001565b6040516370a0823160e01b81526001600160a01b038416600482015290915060009060008051602061585e833981519152906370a0823190602401602060405180830381865afa158015612029573d6000803e3d6000fd5b505050506040513d601f19601f8201168201806040525081019061204d91906152b9565b90506120598282613acf565b6120639087615331565b95505050508080612073906153cc565b915050611fae565b600061208781336133f3565b504261016255565b61209761338d565b611560613ae5565b60006120ab81336133f3565b6120ba6301e1338060646152e8565b6120c49042615331565b6101625550565b60006120d56137b0565b6120e161016b83613b3f565b61211d5760405162461bcd60e51b815260206004820152600d60248201526c141bdbdb081b9bdd081d5cd959609a1b6044820152606401611157565b6000826001600160a01b0316633ba0b9a96040518163ffffffff1660e01b81526004016020604051808303816000875af115801561215f573d6000803e3d6000fd5b505050506040513d601f19601f8201168201806040525081019061218391906152b9565b9050600061219084611001565b90508015612336576040516370a0823160e01b81526001600160a01b038516600482015260009060008051602061585e833981519152906370a0823190602401602060405180830381865afa1580156121ed573d6000803e3d6000fd5b505050506040513d601f19601f8201168201806040525081019061221191906152b9565b9050600061221f8383613acf565b905060008461223683670de0b6b3a76400006152e8565b612240919061531d565b905080156123275760405163a9059cbb60e01b81526001600160a01b03881660048201819052602482018390529063a9059cbb906044016020604051808303816000875af1158015612296573d6000803e3d6000fd5b505050506040513d601f19601f820116820180604052508101906122ba91906154a9565b506040516395a2251f60e01b81523060048201526001600160a01b038816906395a2251f906024016020604051808303816000875af1158015612301573d6000803e3d6000fd5b505050506040513d601f19601f8201168201806040525081019061232591906152b9565b505b61233087611001565b93505050505b9392505050565b60008061015f848154811061235457612354615360565b90600052602060002090600202019050600061015f848154811061237a5761237a615360565b906000526020600020906002020190506000600190508260010154826001015410156123a4575060005b600081156123c757836001015483600101546123c09190615349565b90506123de565b826001015484600101546123db9190615349565b90505b60018401546000906123f883670de0b6b3a76400006152e8565b612402919061531d565b855485549192506000916124169190615349565b90506000816124296301e13380856152e8565b612433919061531d565b9050612445655af3107a40008261531d565b9050841561245b579650610fd895505050505050565b612464816154c6565b9a9950505050505050505050565b6060600061248161016b613a13565b90506000816001600160401b0381111561249d5761249d614e20565b6040519080825280602002602001820160405280156124c6578160200160208202803683370190505b50905060005b82811015611c5b5760006124e261016b83613666565b9050808383815181106124f7576124f7615360565b6001600160a01b0390921660209283029190910190910152508061251a816153cc565b9150506124cc565b600082815260fb602052604081206123369083613666565b600091825260c9602090815260408084206001600160a01b0393909316845291905290205460ff1690565b61256d61338d565b610174805460ff1916911515919091179055565b61258961338d565b61017255565b600080600061259c6119ce565b905080156126ee5760408051600280825260608201835260009260208301908036833701905050905060008051602061585e833981519152816000815181106125e7576125e7615360565b60200260200101906001600160a01b031690816001600160a01b0316815250507321be370d5312f44cb42ce377bc9b8a0cef1a4c838160018151811061262f5761262f615360565b6001600160a01b039092166020928302919091019091015260405163d06ca61f60e01b815273f491e7b69e4244ad4002bc14e878a34207e38c299063d06ca61f9061268090859085906004016154e3565b600060405180830381865afa15801561269d573d6000803e3d6000fd5b505050506040513d6000823e601f3d908101601f191682016040526126c591908101906154fc565b6001815181106126d7576126d7615360565b6020026020010151846126ea9190615331565b9350505b6040516370a0823160e01b81523060048201527321be370d5312f44cb42ce377bc9b8a0cef1a4c83906370a0823190602401602060405180830381865afa15801561273d573d6000803e3d6000fd5b505050506040513d601f19601f8201168201806040525081019061276191906152b9565b61276b9084615331565b92506000612710610166548561278191906152e8565b61278b919061531d565b9050612710610167548261279f91906152e8565b6127a9919061531d565b92506127b58185615349565b935050509091565b6127c561338d565b60648111156128165760405162461bcd60e51b815260206004820152601e60248201527f536c69707061676520746f6c6572616e636520697320746f6f206869676800006044820152606401611157565b61017155565b6040516370a0823160e01b815230600482015260009060008051602061585e833981519152906370a0823190602401602060405180830381865afa158015612868573d6000803e3d6000fd5b505050506040513d601f19601f82011682018060405250810190611e3691906152b9565b6060600061289b61016b613a13565b90506000816001600160401b038111156128b7576128b7614e20565b6040519080825280602002602001820160405280156128e0578160200160208202803683370190505b50905060005b82811015611c5b5760006128fc61016b83613666565b9050600061290982611001565b90508084848151811061291e5761291e615360565b60200260200101818152505050508080612937906153cc565b9150506128e6565b600081815260fb60205260408120610fd890613a13565b61012d5460ff161561297a5760405162461bcd60e51b81526004016111579061547f565b611560613b61565b600061298e81336133f3565b6103e88211156129cf5760405162461bcd60e51b815260206004820152600c60248201526b08ccaca40a8dede4090d2ced60a31b6044820152606401611157565b6101668290556040518281527f2e59d502792bca3d730c472cd3acfbc16d0f9fe6ce0cddbdf0f80830251dfaca9060200160405180910390a15050565b600082815260c96020526040902060010154612a2881336133f3565b6114e08383613803565b612a3a6137b0565b600080826001811115612a4f57612a4f615581565b1415612a70575073283e62cfe14b352db8e30a9575481dcbf589ad98612aa1565b6001826001811115612a8457612a84615581565b1415612aa15750733f7e61c5dd29f9380b270551e438b65c29183a7c5b6000816001600160a01b031663c45a01556040518163ffffffff1660e01b8152600401602060405180830381865afa158015612ae1573d6000803e3d6000fd5b505050506040513d601f19601f82011682018060405250810190612b059190615597565b60405163d407112760e01b8152600481018690529091506000906001600160a01b0383169063d407112790602401602060405180830381865afa158015612b50573d6000803e3d6000fd5b505050506040513d601f19601f82011682018060405250810190612b749190615597565b90506000816001600160a01b0316630dfe16816040518163ffffffff1660e01b8152600401602060405180830381865afa158015612bb6573d6000803e3d6000fd5b505050506040513d601f19601f82011682018060405250810190612bda9190615597565b90506000826001600160a01b031663d21220a76040518163ffffffff1660e01b8152600401602060405180830381865afa158015612c1c573d6000803e3d6000fd5b505050506040513d601f19601f82011682018060405250810190612c409190615597565b905060006001600160a01b03831660008051602061585e8339815191521480612c7f57506001600160a01b03821660008051602061585e833981519152145b905080612cce5760405162461bcd60e51b815260206004820152601a60248201527f506f6f6c20646f6573206e6f7420636f6e7461696e2077616e740000000000006044820152606401611157565b61016d54612cdd61016b613a13565b10612d2a5760405162461bcd60e51b815260206004820152601760248201527f52656163686564206d6178206e72206f6620706f6f6c730000000000000000006044820152606401611157565b604051630572bf5f60e01b81526001600160a01b0385811660048301526000918291881690630572bf5f9060240160a060405180830381865afa158015612d75573d6000803e3d6000fd5b505050506040513d601f19601f82011682018060405250810190612d9991906155b4565b94509450505050600060008051602061585e8339815191526001600160a01b0316866001600160a01b031614612dcf5781612dd1565b825b9050612ddf61016b82613c09565b612e205760405162461bcd60e51b8152602060048201526012602482015271141bdbdb08185b1c9958591e48185919195960721b6044820152606401611157565b5050505050505050505050565b612e446000805160206158c583398151915261293f565b60011415612e6957612e646000805160206158c5833981519152336133f3565b612e93565b612e937fa948adc7068532b3bc0cbefb673a9d9c287bc35ef1f8a3a71353d54d7149def7336133f3565b6001600160a01b038116612ece5760405162461bcd60e51b8152602060048201526002602482015261021360f41b6044820152606401611157565b61016580546001600160a01b0319166001600160a01b0383169081179091556040519081527fa11c447ac90d9534769dc85d422963d67c1d8d899de887301417cedf4dec738d9060200160405180910390a150565b612f2b6137b0565b8060005b8181101561154a57612f61848483818110612f4c57612f4c615360565b90506020020160208101906108489190614dbe565b80612f6b816153cc565b915050612f2f565b612f7b61338d565b61016055565b612f896137b0565b612f916137f8565b8060005b81811015613184576000848483818110612fb157612fb1615360565b612fc79260206040909202019081019150614dbe565b9050612fd561016b82613b3f565b61301a5760405162461bcd60e51b8152602060048201526016602482015275141bdbdb081a5cc81b9bdd08185d5d1a1bdc9a5e995960521b6044820152606401611157565b8161303c5761016e80546001600160a01b0319166001600160a01b0383161790555b6040516370a0823160e01b815230600482015260009060008051602061585e833981519152906370a0823190602401602060405180830381865afa158015613088573d6000803e3d6000fd5b505050506040513d601f19601f820116820180604052508101906130ac91906152b9565b9050806130bb57505050505050565b60008686858181106130cf576130cf615360565b90506040020160200135905060006130e78383613acf565b905061310260008051602061585e8339815191528583613c1e565b6040516335313c2160e11b81523060048201526001600160a01b03851690636a627842906024016020604051808303816000875af1158015613148573d6000803e3d6000fd5b505050506040513d601f19601f8201168201806040525081019061316c91906152b9565b5050505050808061317c906153cc565b915050612f95565b50600061318f61281c565b90506101725481111561154a5761016e546131c39060008051602061585e833981519152906001600160a01b031683613c1e565b61016e546040516335313c2160e11b81523060048201526001600160a01b0390911690636a627842906024016020604051808303816000875af115801561320e573d6000803e3d6000fd5b505050506040513d601f19601f8201168201806040525081019061323291906152b9565b5050505050565b61015f818154811061324a57600080fd5b60009182526020909120600290910201805460019091015490915082565b61015f54600090600211156132bf5760405162461bcd60e51b815260206004820152601b60248201527f6e656564206174206c656173742032206c6f6720656e747269657300000000006044820152606401611157565b6000806000600161015f805490506132d79190615349565b90505b6000811180156132e957508482125b1561332e576133026132fc600183615349565b8261233d565b61330c9084615631565b92508161331881615672565b92505080806133269061568b565b9150506132da565b506110f381836156a2565b61334161338d565b611560613c81565b6001600160a01b03163b151590565b60006001600160e01b03198216637965db0b60e01b1480610fd857506301ffc9a760e01b6001600160e01b0319831614610fd8565b6133a56000805160206158c58339815191523361253a565b806133b657506133b660003361253a565b6115605760405162461bcd60e51b815260206004820152600e60248201526d139bdd08185d5d1a1bdc9a5e995960921b6044820152606401611157565b6133fd828261253a565b6114b657613415816001600160a01b03166014613d31565b613420836020613d31565b6040516020016134319291906156fc565b60408051601f198184030181529082905262461bcd60e51b825261115791600401615771565b600054610100900460ff1661347e5760405162461bcd60e51b8152600401611157906157a4565b613486613ecc565b61348e613ecc565b613496613ef3565b603c610160556101c2610166556103e861016755612328610168556109c461016955600061016a8190556134ca903361378e565b6134d261209f565b61016480546001600160a01b0319166001600160a01b0385161790558151829060009061350157613501615360565b602002602001015161016360006101000a8154816001600160a01b0302191690836001600160a01b031602179055508160018151811061354357613543615360565b602002602001015161016560006101000a8154816001600160a01b0302191690836001600160a01b0316021790555060005b81518110156135c1576135af6000805160206158c58339815191528383815181106135a2576135a2615360565b602002602001015161378e565b806135b9816153cc565b915050613575565b5061015f6040518060400160405280428152602001856001600160a01b03166377c7b8fc6040518163ffffffff1660e01b8152600401602060405180830381865afa158015613614573d6000803e3d6000fd5b505050506040513d601f19601f8201168201806040525081019061363891906152b9565b9052815460018181018455600093845260209384902083516002909302019182559290910151910155505050565b60006123368383613f27565b6040516370a0823160e01b8152306004820152819060009060008051602061585e833981519152906370a0823190602401602060405180830381865afa1580156136c0573d6000803e3d6000fd5b505050506040513d601f19601f820116820180604052508101906136e491906152b9565b9050828110156137245760006137026136fd8386615349565b613f51565b90508361370f8383615331565b10156137225761371f8282615331565b93505b505b81831015613767576000612710610171546127106137429190615349565b61374c90856152e8565b613756919061531d565b90508084101561376557600080fd5b505b610164546114e09060008051602061585e833981519152906001600160a01b031685613c1e565b613798828261420e565b600082815260fb602052604090206114e09082613c09565b6137da7f71a9859d7dd21b24504a6f306077ffc2d510b4d4b61128e931fe937441ad18363361253a565b806133a557506133a56000805160206158c58339815191523361253a565b6116b9600019613f51565b61380d8282614294565b600082815260fb602052604090206114e09082613a1d565b600061383181336133f3565b426202a300610162546138449190615331565b106138a05760405162461bcd60e51b815260206004820152602660248201527f636f6f6c646f776e206e6f7420696e69746961746564206f72207374696c6c2060448201526561637469766560d01b6064820152608401611157565b6114b661209f565b7f4910fdfa16fed3260ed0e7147f7cc6da11a60208b5b9406d12a635614ffd91435460ff16156138db576114e0836142fb565b826001600160a01b03166352d1902d6040518163ffffffff1660e01b8152600401602060405180830381865afa925050508015613935575060408051601f3d908101601f19168201909252613932918101906152b9565b60015b6139985760405162461bcd60e51b815260206004820152602e60248201527f45524331393637557067726164653a206e657720696d706c656d656e7461746960448201526d6f6e206973206e6f74205555505360901b6064820152608401611157565b60008051602061587e8339815191528114613a075760405162461bcd60e51b815260206004820152602960248201527f45524331393637557067726164653a20756e737570706f727465642070726f786044820152681a58589b195555525160ba1b6064820152608401611157565b506114e0838383614397565b6000610fd8825490565b6000612336836001600160a01b0384166143bc565b61012d5460ff16613a7c5760405162461bcd60e51b815260206004820152601460248201527314185d5cd8589b194e881b9bdd081c185d5cd95960621b6044820152606401611157565b61012d805460ff191690557f5db9ee0a495bf2e6ff9c91a7834c1ba4fdd244a5e8aa4e537bd38aeae4b073aa335b6040516001600160a01b03909116815260200160405180910390a1565b6115606144af565b6000818310613ade5781612336565b5090919050565b61012d5460ff1615613b095760405162461bcd60e51b81526004016111579061547f565b61012d805460ff191660011790557f62e78cea01bee320cd4e420270b5ea74000d11b0c9f74754ebdbfc544b05a258613aaa3390565b6001600160a01b03811660009081526001830160205260408120541515612336565b6000613b6b61281c565b905080156116b95761016e54613b9a9060008051602061585e833981519152906001600160a01b031683613c1e565b61016e546040516335313c2160e11b81523060048201526001600160a01b0390911690636a627842906024016020604051808303816000875af1158015613be5573d6000803e3d6000fd5b505050506040513d601f19601f820116820180604052508101906114b691906152b9565b6000612336836001600160a01b038416614794565b6040516001600160a01b0383166024820152604481018290526114e090849063a9059cbb60e01b906064015b60408051601f198184030181529190526020810180516001600160e01b03166001600160e01b0319909316929092179091526147e3565b6000613c8b611c62565b905061017354811115613cfd57613ca06137f8565b613ca8611c62565b905061017354811115613cfd5760405162461bcd60e51b815260206004820152601c60248201527f57616e74207374696c6c20737570706c69656420746f20706f6f6c73000000006044820152606401611157565b6000613d0761281c565b610164549091506114b69060008051602061585e833981519152906001600160a01b031683613c1e565b60606000613d408360026152e8565b613d4b906002615331565b6001600160401b03811115613d6257613d62614e20565b6040519080825280601f01601f191660200182016040528015613d8c576020820181803683370190505b509050600360fc1b81600081518110613da757613da7615360565b60200101906001600160f81b031916908160001a905350600f60fb1b81600181518110613dd657613dd6615360565b60200101906001600160f81b031916908160001a9053506000613dfa8460026152e8565b613e05906001615331565b90505b6001811115613e7d576f181899199a1a9b1b9c1cb0b131b232b360811b85600f1660108110613e3957613e39615360565b1a60f81b828281518110613e4f57613e4f615360565b60200101906001600160f81b031916908160001a90535060049490941c93613e768161568b565b9050613e08565b5083156123365760405162461bcd60e51b815260206004820181905260248201527f537472696e67733a20686578206c656e67746820696e73756666696369656e746044820152606401611157565b600054610100900460ff166115605760405162461bcd60e51b8152600401611157906157a4565b600054610100900460ff16613f1a5760405162461bcd60e51b8152600401611157906157a4565b61012d805460ff19169055565b6000826000018281548110613f3e57613f3e615360565b9060005260206000200154905092915050565b6000818180613f6161016b613a13565b905060005b81811015614204576000613f7c61016b83613666565b90506000613f8982611001565b905061017254811015613f9d5750506141f2565b6000826001600160a01b0316633ba0b9a96040518163ffffffff1660e01b81526004016020604051808303816000875af1158015613fdf573d6000803e3d6000fd5b505050506040513d601f19601f8201168201806040525081019061400391906152b9565b6040516370a0823160e01b81526001600160a01b038516600482015290915060009060008051602061585e833981519152906370a0823190602401602060405180830381865afa15801561405b573d6000803e3d6000fd5b505050506040513d601f19601f8201168201806040525081019061407f91906152b9565b9050600061408d8483613acf565b9050600061409b8a83613acf565b9050610172548110156140b3575050505050506141f2565b6000846140c883670de0b6b3a76400006152e8565b6140d2919061531d565b60405163a9059cbb60e01b81526001600160a01b038916600482018190526024820183905291925063a9059cbb906044016020604051808303816000875af1158015614122573d6000803e3d6000fd5b505050506040513d601f19601f8201168201806040525081019061414691906154a9565b506040516395a2251f60e01b81523060048201526001600160a01b038816906395a2251f906024016020604051808303816000875af115801561418d573d6000803e3d6000fd5b505050506040513d601f19601f820116820180604052508101906141b191906152b9565b6141bb908b615331565b9950610172548d6141cc9190615349565b8a106141de5750505050505050614204565b6141e88a8e615349565b9a50505050505050505b806141fc816153cc565b915050613f66565b5090949350505050565b614218828261253a565b6114b657600082815260c9602090815260408083206001600160a01b03851684529091529020805460ff191660011790556142503390565b6001600160a01b0316816001600160a01b0316837f2f8788117e7eff1d82e926ec794901d17c78024a50270940304540a733656f0d60405160405180910390a45050565b61429e828261253a565b156114b657600082815260c9602090815260408083206001600160a01b0385168085529252808320805460ff1916905551339285917ff6391f5c32d9c69d2a47ea670b442974b53935d1edc7fd64eb21e047a839171b9190a45050565b6001600160a01b0381163b6143685760405162461bcd60e51b815260206004820152602d60248201527f455243313936373a206e657720696d706c656d656e746174696f6e206973206e60448201526c1bdd08184818dbdb9d1c9858dd609a1b6064820152608401611157565b60008051602061587e83398151915280546001600160a01b0319166001600160a01b0392909216919091179055565b6143a0836148b5565b6000825111806143ad5750805b156114e05761154a83836148f5565b600081815260018301602052604081205480156144a55760006143e0600183615349565b85549091506000906143f490600190615349565b905081811461445957600086600001828154811061441457614414615360565b906000526020600020015490508087600001848154811061443757614437615360565b6000918252602080832090910192909255918252600188019052604090208390555b855486908061446a5761446a6157ef565b600190038181906000526020600020016000905590558560010160008681526020019081526020016000206000905560019350505050610fd8565b6000915050610fd8565b6144b7611e49565b60006144c16119ce565b90506101705481106116b957600061271061016654836144e191906152e8565b6144eb919061531d565b90507321be370d5312f44cb42ce377bc9b8a0cef1a4c8381156114e0576040516370a0823160e01b815230600482015260009060008051602061585e833981519152906370a0823190602401602060405180830381865afa158015614554573d6000803e3d6000fd5b505050506040513d601f19601f8201168201806040525081019061457891906152b9565b9050828110156145b35760006145916136fd8386615349565b90508361459e8383615331565b10156145b1576145ae8282615331565b93505b505b6145e060008051602061585e8339815191527321be370d5312f44cb42ce377bc9b8a0cef1a4c83856149e9565b6040516370a0823160e01b81523060048201526000907321be370d5312f44cb42ce377bc9b8a0cef1a4c83906370a0823190602401602060405180830381865afa158015614632573d6000803e3d6000fd5b505050506040513d601f19601f8201168201806040525081019061465691906152b9565b90506000612710610167548361466c91906152e8565b614676919061531d565b90506000612710610168548461468c91906152e8565b614696919061531d565b9050600061271061016954836146ac91906152e8565b6146b6919061531d565b90506146c28183615349565b91506146d86001600160a01b0387163385613c1e565b610163546146f3906001600160a01b03888116911684613c1e565b6101655461470e906001600160a01b03888116911683613c1e565b61016460009054906101000a90046001600160a01b03166001600160a01b03166377c7b8fc6040518163ffffffff1660e01b8152600401602060405180830381865afa158015614762573d6000803e3d6000fd5b505050506040513d601f19601f8201168201806040525081019061478691906152b9565b61016f555050505050505050565b60008181526001830160205260408120546147db57508154600181810184556000848152602080822090930184905584548482528286019093526040902091909155610fd8565b506000610fd8565b6000614838826040518060400160405280602081526020017f5361666545524332303a206c6f772d6c6576656c2063616c6c206661696c6564815250856001600160a01b0316614b299092919063ffffffff16565b8051909150156114e0578080602001905181019061485691906154a9565b6114e05760405162461bcd60e51b815260206004820152602a60248201527f5361666545524332303a204552433230206f7065726174696f6e20646964206e6044820152691bdd081cdd58d8d9595960b21b6064820152608401611157565b6148be816142fb565b6040516001600160a01b038216907fbc7cd75a20ee27fd9adebab32041f755214dbc6bffa90cc0225b39da2e5c2d3b90600090a250565b60606001600160a01b0383163b61495d5760405162461bcd60e51b815260206004820152602660248201527f416464726573733a2064656c65676174652063616c6c20746f206e6f6e2d636f6044820152651b9d1c9858dd60d21b6064820152608401611157565b600080846001600160a01b0316846040516149789190615805565b600060405180830381855af49150503d80600081146149b3576040519150601f19603f3d011682016040523d82523d6000602084013e6149b8565b606091505b50915091506149e0828260405180606001604052806027815260200161589e60279139614b38565b95945050505050565b816001600160a01b0316836001600160a01b03161480614a07575080155b15614a1157505050565b6040805160028082526060820183526000926020830190803683370190505090508381600081518110614a4657614a46615360565b60200260200101906001600160a01b031690816001600160a01b0316815250508281600181518110614a7a57614a7a615360565b6001600160a01b039283166020918202929092010152614ab190851673f491e7b69e4244ad4002bc14e878a34207e38c2984614b71565b604051635c11d79560e01b815273f491e7b69e4244ad4002bc14e878a34207e38c2990635c11d79590614af1908590600090869030904290600401615821565b600060405180830381600087803b158015614b0b57600080fd5b505af1158015614b1f573d6000803e3d6000fd5b5050505050505050565b60606110f38484600085614c23565b60608315614b47575081612336565b825115614b575782518084602001fd5b8160405162461bcd60e51b81526004016111579190615771565b604051636eb1769f60e11b81523060048201526001600160a01b038381166024830152600091839186169063dd62ed3e90604401602060405180830381865afa158015614bc2573d6000803e3d6000fd5b505050506040513d601f19601f82011682018060405250810190614be691906152b9565b614bf09190615331565b6040516001600160a01b03851660248201526044810182905290915061154a90859063095ea7b360e01b90606401613c4a565b606082471015614c845760405162461bcd60e51b815260206004820152602660248201527f416464726573733a20696e73756666696369656e742062616c616e636520666f6044820152651c8818d85b1b60d21b6064820152608401611157565b6001600160a01b0385163b614cdb5760405162461bcd60e51b815260206004820152601d60248201527f416464726573733a2063616c6c20746f206e6f6e2d636f6e74726163740000006044820152606401611157565b600080866001600160a01b03168587604051614cf79190615805565b60006040518083038185875af1925050503d8060008114614d34576040519150601f19603f3d011682016040523d82523d6000602084013e614d39565b606091505b5091509150614d49828286614b38565b979650505050505050565b600060208284031215614d6657600080fd5b81356001600160e01b03198116811461233657600080fd5b80151581146116b957600080fd5b600060208284031215614d9e57600080fd5b813561233681614d7e565b6001600160a01b03811681146116b957600080fd5b600060208284031215614dd057600080fd5b813561233681614da9565b600080600060608486031215614df057600080fd5b505081359360208301359350604090920135919050565b600060208284031215614e1957600080fd5b5035919050565b634e487b7160e01b600052604160045260246000fd5b604051601f8201601f191681016001600160401b0381118282101715614e5e57614e5e614e20565b604052919050565b60006001600160401b03821115614e7f57614e7f614e20565b5060051b60200190565b600082601f830112614e9a57600080fd5b81356020614eaf614eaa83614e66565b614e36565b82815260059290921b84018101918181019086841115614ece57600080fd5b8286015b84811015614ef2578035614ee581614da9565b8352918301918301614ed2565b509695505050505050565b803560028110614f0c57600080fd5b919050565b600080600080600060a08688031215614f2957600080fd5b8535614f3481614da9565b945060208601356001600160401b0380821115614f5057600080fd5b614f5c89838a01614e89565b95506040880135915080821115614f7257600080fd5b50614f7f88828901614e89565b93505060608601359150614f9560808701614efd565b90509295509295909350565b60008060408385031215614fb457600080fd5b823591506020830135614fc681614da9565b809150509250929050565b60008083601f840112614fe357600080fd5b5081356001600160401b03811115614ffa57600080fd5b6020830191508360208260061b850101111561501557600080fd5b9250929050565b6000806020838503121561502f57600080fd5b82356001600160401b0381111561504557600080fd5b61505185828601614fd1565b90969095509350505050565b6000806040838503121561507057600080fd5b823561507b81614da9565b91506020838101356001600160401b038082111561509857600080fd5b818601915086601f8301126150ac57600080fd5b8135818111156150be576150be614e20565b6150d0601f8201601f19168501614e36565b915080825287848285010111156150e657600080fd5b80848401858401376000848284010152508093505050509250929050565b602080825282518282018190526000919060409081850190868401855b8281101561514f57815180516001600160a01b03168552860151868501529284019290850190600101615121565b5091979650505050505050565b6000806040838503121561516f57600080fd5b50508035926020909101359150565b600081518084526020808501945080840160005b838110156151b75781516001600160a01b031687529582019590820190600101615192565b509495945050505050565b602081526000612336602083018461517e565b6020808252825182820181905260009190848201906040850190845b8181101561520d578351835292840192918401916001016151f1565b50909695505050505050565b6000806040838503121561522c57600080fd5b8235915061523c60208401614efd565b90509250929050565b6000806020838503121561525857600080fd5b82356001600160401b038082111561526f57600080fd5b818501915085601f83011261528357600080fd5b81358181111561529257600080fd5b8660208260051b85010111156152a757600080fd5b60209290920196919550909350505050565b6000602082840312156152cb57600080fd5b5051919050565b634e487b7160e01b600052601160045260246000fd5b6000816000190483118215151615615302576153026152d2565b500290565b634e487b7160e01b600052601260045260246000fd5b60008261532c5761532c615307565b500490565b60008219821115615344576153446152d2565b500190565b60008282101561535b5761535b6152d2565b500390565b634e487b7160e01b600052603260045260246000fd5b60006040828403121561538857600080fd5b604051604081018181106001600160401b03821117156153aa576153aa614e20565b6040526153b683614efd565b8152602083013560208201528091505092915050565b60006000198214156153e0576153e06152d2565b5060010190565b6020808252602c908201527f46756e6374696f6e206d7573742062652063616c6c6564207468726f7567682060408201526b19195b1959d85d1958d85b1b60a21b606082015260800190565b6020808252602c908201527f46756e6374696f6e206d7573742062652063616c6c6564207468726f7567682060408201526b6163746976652070726f787960a01b606082015260800190565b60208082526010908201526f14185d5cd8589b194e881c185d5cd95960821b604082015260600190565b6000602082840312156154bb57600080fd5b815161233681614d7e565b6000600160ff1b8214156154dc576154dc6152d2565b5060000390565b8281526040602082015260006110f3604083018461517e565b6000602080838503121561550f57600080fd5b82516001600160401b0381111561552557600080fd5b8301601f8101851361553657600080fd5b8051615544614eaa82614e66565b81815260059190911b8201830190838101908783111561556357600080fd5b928401925b82841015614d4957835182529284019290840190615568565b634e487b7160e01b600052602160045260246000fd5b6000602082840312156155a957600080fd5b815161233681614da9565b600080600080600060a086880312156155cc57600080fd5b85516155d781614d7e565b602087015190955062ffffff811681146155f057600080fd5b604087015190945061560181614da9565b606087015190935061561281614da9565b608087015190925061562381614da9565b809150509295509295909350565b600080821280156001600160ff1b0384900385131615615653576156536152d2565b600160ff1b839003841281161561566c5761566c6152d2565b50500190565b60006001600160ff1b038214156153e0576153e06152d2565b60008161569a5761569a6152d2565b506000190190565b6000826156b1576156b1615307565b600160ff1b8214600019841416156156cb576156cb6152d2565b500590565b60005b838110156156eb5781810151838201526020016156d3565b8381111561154a5750506000910152565b7f416363657373436f6e74726f6c3a206163636f756e74200000000000000000008152600083516157348160178501602088016156d0565b7001034b99036b4b9b9b4b733903937b6329607d1b60179184019182015283516157658160288401602088016156d0565b01602801949350505050565b60208152600082518060208401526157908160408501602087016156d0565b601f01601f19169190910160400192915050565b6020808252602b908201527f496e697469616c697a61626c653a20636f6e7472616374206973206e6f74206960408201526a6e697469616c697a696e6760a81b606082015260800190565b634e487b7160e01b600052603160045260246000fd5b600082516158178184602087016156d0565b9190910192915050565b85815284602082015260a06040820152600061584060a083018661517e565b6001600160a01b039490941660608301525060800152939250505056fe000000000000000000000000049d68029688eabf473097a2fc38ef61633a3c7a360894a13ba1a3210667c828492db98dca3e2076cc3735a920a3ca505d382bbc416464726573733a206c6f772d6c6576656c2064656c65676174652063616c6c206661696c6564b17d0a42cc710456bf9c3efb785dcd0cb93a0ac358113307b5c64b285b516b5ca2646970667358221220aa1bd1136d7943b95365b742320fd4502d191acd46cc62be27d5577c3b1c8b9a64736f6c634300080b0033",
  "linkReferences": {},
  "deployedLinkReferences": {}
}